:020000040000FA
:020000001728BF
:08000800FD000308FE000A08D8
:10001000FF00000024140C10E7308F0095308E0094
:100020007F088A007E088300FD0E7D0E090083167E
:1000300003138701051586018312031704309E0000
:100040008312031389309F008316031320309F000F
:1000500083120313C0308B00831203138C018312AD
:10006000031331309000831603130C14831203130F
:10007000E7308F0095308E00241C3C289F149F1879
:100080003F281E08A6002608260E860083160313A6
:0E0090001E0883120313A50025088700241004
:02400E00E4309C
:084200000100020003000400AC
:00000001FF
